{
  "transactions": [
    {
      "hash": "0x7ba7dbde96c780e1c922c4eb7936d5882bd7b820cfafa4760325b020fa7f63e4",
      "transactionType": "CALL",
      "contractName": null,
      "contractAddress": "0x779877a7b0d9e8603169ddbd7836e478b4624789",
      "function": "transferAndCall(address,uint256,bytes)",
      "arguments": [
        "0x9DdfaCa8183c41ad55329BdeeD9F6A8d53168B1B",
        "3000000000000000000",
        "0x2c6523abe7438ad119973e4545ebff573b957526d6eba7940b74282b9c55da55"
      ],
      "transaction": {
        "from": "0x9bab1d85c2b2dcffdd0a8b230da1126711594bf9",
        "to": "0x779877a7b0d9e8603169ddbd7836e478b4624789",
        "gas": "0x14cbb",
        "value": "0x0",
        "input": "0x4000aea00000000000000000000000009ddfaca8183c41ad55329bdeed9f6a8d53168b1b00000000000000000000000000000000000000000000000029a2241af62c0000000000000000000000000000000000000000000000000000000000000000006000000000000000000000000000000000000000000000000000000000000000202c6523abe7438ad119973e4545ebff573b957526d6eba7940b74282b9c55da55",
        "nonce": "0xb",
        "chainId": "0xaa36a7"
      },
      "additionalContracts": [],
      "isFixedGasLimit": false
    }
  ],
  "receipts": [
    {
      "status": "0x1",
      "cumulativeGasUsed": "0x221b457",
      "logs": [
        {
          "address": "0x779877a7b0d9e8603169ddbd7836e478b4624789",
          "topics": [
            "0xddf252ad1be2c89b69c2b068fc378daa952ba7f163c4a11628f55a4df523b3ef",
            "0x0000000000000000000000009bab1d85c2b2dcffdd0a8b230da1126711594bf9",
            "0x0000000000000000000000009ddfaca8183c41ad55329bdeed9f6a8d53168b1b"
          ],
          "data": "0x00000000000000000000000000000000000000000000000029a2241af62c0000",
          "blockHash": "0x9dc831a6829f391d694ba700c5a5a534ff675e6ce35c6dd585ef98560643c5a6",
          "blockNumber": "0x8520eb",
          "blockTimestamp": "0x686e11a8",
          "transactionHash": "0x7ba7dbde96c780e1c922c4eb7936d5882bd7b820cfafa4760325b020fa7f63e4",
          "transactionIndex": "0x176",
          "logIndex": "0x21d",
          "removed": false
        },
        {
          "address": "0x779877a7b0d9e8603169ddbd7836e478b4624789",
          "topics": [
            "0xe19260aff97b920c7df27010903aeb9c8d2be5d310a2c67824cf3f15396e4c16",
            "0x0000000000000000000000009bab1d85c2b2dcffdd0a8b230da1126711594bf9",
            "0x0000000000000000000000009ddfaca8183c41ad55329bdeed9f6a8d53168b1b"
          ],
          "data": "0x00000000000000000000000000000000000000000000000029a2241af62c0000000000000000000000000000000000000000000000000000000000000000004000000000000000000000000000000000000000000000000000000000000000202c6523abe7438ad119973e4545ebff573b957526d6eba7940b74282b9c55da55",
          "blockHash": "0x9dc831a6829f391d694ba700c5a5a534ff675e6ce35c6dd585ef98560643c5a6",
          "blockNumber": "0x8520eb",
          "blockTimestamp": "0x686e11a8",
          "transactionHash": "0x7ba7dbde96c780e1c922c4eb7936d5882bd7b820cfafa4760325b020fa7f63e4",
          "transactionIndex": "0x176",
          "logIndex": "0x21e",
          "removed": false
        },
        {
          "address": "0x9ddfaca8183c41ad55329bdeed9f6a8d53168b1b",
          "topics": [
            "0x1ced9348ff549fceab2ac57cd3a9de38edaaab274b725ee82c23e8fc8c4eec7a",
            "0x2c6523abe7438ad119973e4545ebff573b957526d6eba7940b74282b9c55da55"
          ],
          "data": "0x0000000000000000000000000000000000000000000000004563918244f400000000000000000000000000000000000000000000000000006f05b59d3b200000",
          "blockHash": "0x9dc831a6829f391d694ba700c5a5a534ff675e6ce35c6dd585ef98560643c5a6",
          "blockNumber": "0x8520eb",
          "blockTimestamp": "0x686e11a8",
          "transactionHash": "0x7ba7dbde96c780e1c922c4eb7936d5882bd7b820cfafa4760325b020fa7f63e4",
          "transactionIndex": "0x176",
          "logIndex": "0x21f",
          "removed": false
        }
      ],
      "logsBloom": "0x00000004000000001000000000000000000000000020000000000000020000000000000000000000000000000000000000000000000000000000000000000000000000000000000000000008000000000000000000000000000020000020000008000000000020000000000000000000000000000000000000000010000040000000000000000000000000010000800000001020000000000000000000000000000000000000000800000000010000000000000000000000000004000000000000000002000000000000000000000001000010000000000100000000000000000010000000000000800000000000000000000000000000000000000000000000",
      "type": "0x2",
      "transactionHash": "0x7ba7dbde96c780e1c922c4eb7936d5882bd7b820cfafa4760325b020fa7f63e4",
      "transactionIndex": "0x176",
      "blockHash": "0x9dc831a6829f391d694ba700c5a5a534ff675e6ce35c6dd585ef98560643c5a6",
      "blockNumber": "0x8520eb",
      "gasUsed": "0xf0e5",
      "effectiveGasPrice": "0x1bb9ae",
      "from": "0x9bab1d85c2b2dcffdd0a8b230da1126711594bf9",
      "to": "0x779877a7b0d9e8603169ddbd7836e478b4624789",
      "contractAddress": null
    }
  ],
  "libraries": [],
  "pending": [],
  "returns": {},
  "timestamp": 1752043945,
  "chain": 11155111,
  "commit": null
}